8=FIX.4.2|9=101|35=e|49=TTTTTTT6|56=872|0055=6236.83333333|34=99|52=20140709-14:43:12.934|0077=Y|57=ARCA|108=60|98=0|10=114
8=FIX.4.4|9=510|35=W|52=20100309-14:26:00.903|49=AAAA-BBBBB|56=CCCC9-MM|34=1021447|262=EUR/JPY|55=EUR/JPY|268=10|269=0|270=129.33|271=1000000|299=904763|269=1|270=129.334|271=1000000|299=904771|269=0|270=129.328|271=3000000|299=904761|269=1|270=129.335|271=3000000|299=904764|269=0|270=129.327|271=5000000|299=904772|269=1|270=129.337|271=5000000|299=904773|269=0|270=129.325|271=10000000|299=904767|269=1|270=129.338|271=10000000|299=904768|269=0|270=129.322|271=20000000|299=904769|269=1|270=129.341|271=20000000|299=904770|10=193