8=FIX.4.2|9=101|35=e|49=TTTTTTT6|56=872|0155=6236.83333333|34=99|52=20140709-14:43:12.934|0077=Y|57=ARCA|108=60|98=0|10=114|
8=FIX.4.2|9=157|35=a|49=TTTTTTT6|56=44611|5555=11855.33|34=58|52=20140709-15:01:26.209|146=2|55=AAPL|64=65912|107=blah1|55=IBM|64=56132|107=blah2|7777=Y|57=ARCA|108=60|98=0|10=114|