8=FIX.4.2|9=101|35=e|49=TTTTTTT6|56=872|5555=6236.83333333|34=99|52=20140709-14:43:12.934|7777=Y|57=ARCA|108=60|98=0|10=114|
8=FIX.4.2|9=157|35=a|49=TTTTTTT6|56=44611|5555=11855.33|34=58|52=20140709-15:01:26.209|146=2|55=AAPL|64=65912|107=blah1|55=IBM|64=56132|107=blah2|7777=Y|57=ARCA|108=60|98=0|10=114|
8=FIX.4.2|9=272|35=a|49=TTTTTTT6|56=63016|5555=4592.00|34=64|52=20140709-19:38:42.653|146=2|55=AAPL|64=61245|107=blah1|10000=2|10001=61245|10002=21785|10001=foo421|10002=foo422|55=IBM|64=21785|107=blah2|10000=2|10001=15732|10002=39740|10001=foo421|10002=foo422|7777=Y|57=ARCA|108=60|98=0|10=114|
